:020000040800F2
:1000000078060020290200083102000833020008A7
:10001000350200083702000839020008000000001D
:100020000000000000000000000000003B0200088B
:100030003D020008000000003F02000841020008E5
:10004000430200084302000843020008430200087C
:10005000430200084302000843020008430200086C
:10006000430200084302000843020008430200085C
:10007000430200084302000843020008430200084C
:10008000430200084302000843020008430200083C
:10009000430200084302000843020008430200082C
:1000A000430200084302000843020008430200081C
:1000B000430200084302000843020008430200080C
:1000C00043020008430200084302000843020008FC
:1000D00043020008430200084302000843020008EC
:1000E00043020008430200084302000843020008DC
:1000F00043020008430200084302000843020008CC
:1001000043020008430200084302000843020008BB
:1001100043020008430200084302000843020008AB
:10012000430200084302000843020008430200089B
:10013000430200084302000843020008430200088B
:10014000430200084302000843020008430200087B
:10015000430200084302000843020008430200086B
:10016000430200084302000843020008430200085B
:100170004302000843020008430200080000000098
:10018000430200084302000800F002F800F03CF8C7
:100190000AA090E8000C82448344AAF10107DA45E2
:1001A00001D100F031F8AFF2090EBAE80F0013F0F8
:1001B000010F18BFFB1A43F001031847C4070000E2
:1001C000E4070000103A24BF78C878C1FAD8520773
:1001D00024BF30C830C144BF04680C6070470000C1
:1001E0000023002400250026103A28BF78C1FBD840
:1001F000520728BF30C148BF0B6070471FB500F0E1
:10020000AAFB1FBD10B510BD00F0A9F81146FFF7FD
:10021000F5FF00F081FB00F0C7F803B4FFF7F2FF31
:1002200003BC00F0CFF800000948804709480047A8
:10023000FEE7FEE7FEE7FEE7FEE7FEE7FEE7FEE796
:10024000FEE7FEE704480549054A064B70470000F3
:10025000A107000889010008780000207806002026
:10026000780200207802002053EA020C00F0698036
:100270002DE9F04B4FF00006002B1FBFB3FA83F5BA
:1002800003FA05F424FA05F65E4012BF1643B2FAEB
:1002900082F502FA05F4C5F120051EBF22FA05FC1D
:1002A00044EA0C04203556EA044C4FEA144418BFC3
:1002B000641C4FF000084FF00009904271EB030CF2
:1002C00039D3002919BFB1FA81F701FA07F6B0FA5C
:1002D00080F700FA07F6C7F120071EBF20FA07FCD7
:1002E00046EA0C062037B6FBF4FCA7EB0507103FE7
:1002F00007F01F0BCBF120062CFA06F60CFA0BFBCD
:1003000044BFB3460026202FA4BF5E464FF0000B2B
:100310005BEA060C08BF4FF0010B19EB0B0948EB29
:100320000608ABFB027C06FB02CC0BFB03CCC01B1C
:1003300071EB0C01C1E70B46024641464846BDE859
:10034000F08B13B5084318BF4FF0FF300146AFF3F1
:100350000080BDE81C407047704770477047754685
:1003600000F02CF8AE4605006946534620F0070021
:10037000854618B020B5FFF765FFBDE820404FF077
:1003800000064FF000074FF000084FF0000BAC469E
:10039000ACE8C009ACE8C009ACE8C009ACE8C009E9
:1003A00021F007018D46704710B50446AFF3008079
:1003B0002046BDE81040FFF730BF000000487047FE
:1003C0001800002001491820ABBEFEE726000200FD
:1003D0007047000080B582B0ADF806000020ADF88F
:1003E0000400FFE7BDF80400BDF8061088420BDAF0
:1003F000FFE74FF47A7000F009F8FFE7BDF804005A
:100400000130ADF80400EDE702B080BD81B0ADF879
:10041000020041F22401C4F2000100200860FFE75D
:1004200041F22400C4F200000068BDF802108842C6
:1004300001D2FFE7F4E701B07047000080B586B055
:100440000020059004900390029043F60800C4F247
:100450000200006800F00C000146019140B1FFE786
:10046000019804280AD0FFE7019808280CD04FE033
:1004700042F20040C0F2F40002904FE041F200204E
:10048000C0F27A00029049E043F60400C4F2020090
:10049000016801F03F01059100684002002813D572
:1004A000FFE743F60400C4F202000068C0F38810BE
:1004B00041F20021C0F27A01A0FB0101059A00235C
:1004C000FFF7D2FE049012E043F60400C4F20200EB
:1004D0000068C0F3881042F20041C0F2F401A0FBB2
:1004E0000101059A0023FFF7BFFE0490FFE743F6E2
:1004F0000400C4F20200006800F44031022000EB66
:10050000D130039004980399B0FBF1F0029005E01C
:1005100042F20040C0F2F4000290FFE7029806B0F9
:1005200080BD000080B586B000200590049043F6A1
:100530000001C4F20201086840F480300860FFE75F
:1005400043F60000C4F20200006800F4003004909A
:10055000059801300590FFE704990020029039B911
:10056000FFE70598B0F5A04018BF01200290FFE713
:100570000298C0070028E3D1FFE743F60000C4F269
:10058000020000688003002803D5FFE701200490E3
:1005900002E000200490FFE7049801285DD1FFE706
:1005A00043F64001C4F20201086840F08050086040
:1005B00047F20001C4F20001086840F440400860BE
:1005C00043F60401C4F2020100200860086845F205
:1005D0000842C0F240421043086043F60001C4F2F2
:1005E0000201086840F080700860FFE743F60000F1
:1005F000C4F2020000688001002801D4FFE7F5E79B
:1006000043F60801C4F20201019108680860086815
:1006100040F400400860086840F4A050086043F6C9
:100620000042C4F20202106840F2057318431060E1
:10063000086820F003000860086840F002000860C5
:10064000FFE743F60800C4F20200006800F00C0067
:10065000082801D0FFE7F4E705E0BDF80E000130FF
:10066000ADF80E00FFE700F003F806B080BD000013
:1006700086B000210591049102200390029101901F
:1006800043F60800C4F20200006800F00C00059078
:100690000598009040B1FFE7009804280ED0FFE7CE
:1006A0000098082814D059E040F20001C2F200017D
:1006B00042F20040C0F2F400086059E040F200014C
:1006C000C2F2000147F64000C0F27D1008604FE022
:1006D00043F60400C4F202000168C1F380510291A4
:1006E000006800F03F000190029888B1FFE701998F
:1006F00047F64000C0F27D10B0FBF1F043F6040174
:10070000C4F202010968C1F388114843049010E063
:10071000019942F20040C0F2F400B0FBF1F043F660
:100720000401C4F202010968C1F38811484304902E
:10073000FFE743F60400C4F20200006800F4403111
:10074000022000EBD130039004980399B0FBF1F044
:1007500040F20001C2F20001086009E040F200012D
:10076000C2F2000142F20040C0F2F4000860FFE76C
:1007700043F60800C4F202000068C0B2010940F666
:100780007010C0F60000405C0590059A40F2000130
:10079000C2F200010868D040086006B0704700004F
:1007A0004EF68851CEF20001086840F470000860EF
:1007B0007047000080B543F60001C4F202010868EA
:1007C00040F00100086043F60801C4F20201002075
:1007D000086043F60C01C4F2020108680860FFF7E4
:1007E000A1FE80BD43F64001C4F20201086840F05A
:1007F0001000086041F22801C4F20001086840F0CE
:100800005300086041F22C01C4F2000108684FF661
:10081000FF721043086041F20001C4F20001086851
:1008200040F001000860FFE741F21000C4F2000050
:100830000068C00708B9FFE7F6E7704780B582B0E7
:100840000190FFE70198007838B1FFE70198411C5B
:100850000191007800F004F8F4E702B080BD0000D8
:1008600081B08DF803009DF8030044F60401C4F242
:1008700000010860FFE744F60000C4F200000068D1
:100880004006002801D4FFE7F5E701B070470000FB
:1008900043F64001C4F20201086840F48020086079
:1008A00043F63001C4F20201086840F0020008601B
:1008B00040F20041C4F20201086840F420000860E0
:1008C00040F20841C4F20201086840F47000086078
:1008D00040F22441C4F20201086840F4EE4008608E
:1008E00044F60C01C4F2000100200860086840F4DE
:1008F00000500860086820F48050086044F6080240
:10090000C4F20002106840F26D13184310600868CA
:1009100040F00C000860704780B584B00020039060
:10092000FFF748FFFFF75EFFFFF7B2FFFFF786FD17
:10093000029044F60C00C4F2000000680190FFE74A
:1009400040F20400C2F20000FFF778FF4FF47A7023
:10095000FFF740FDF4E7F1EE100A4FF6FF71C0F229
:10096000C03120EA010040F04070E1EE100A70470B
:10097000000000000000000001020304060708094F
:10098000A00900080000002014000000C4010008B5
:10099000B40900081800002060060000E00100080B
:1009A0000024F40068656C6C6F20776F726C6421B2
:0409B0000000000043
:0400000508000229C4
:00000001FF
