:020000040800F2
:1000000070060020290200083102000833020008AF
:10001000350200083702000839020008000000001D
:100020000000000000000000000000003B0200088B
:100030003D020008000000003F02000841020008E5
:10004000430200084302000843020008430200087C
:100050004302000843020008E502000843020008CA
:10006000430200084302000843020008430200085C
:10007000430200084302000843020008430200084C
:10008000430200084302000843020008430200083C
:10009000430200084302000843020008430200082C
:1000A000430200084302000843020008430200081C
:1000B000430200084302000843020008430200080C
:1000C00043020008430200084302000843020008FC
:1000D00043020008430200084302000843020008EC
:1000E00043020008430200084302000843020008DC
:1000F00043020008430200084302000843020008CC
:1001000043020008430200084302000843020008BB
:1001100043020008430200084302000843020008AB
:10012000430200084302000843020008430200089B
:10013000430200084302000843020008430200088B
:10014000430200084302000843020008430200087B
:10015000430200084302000843020008430200086B
:10016000430200084302000843020008430200085B
:100170004302000843020008430200080000000098
:10018000430200084302000800F002F800F03CF8C7
:100190000AA090E8000C82448344AAF10107DA45E2
:1001A00001D100F031F8AFF2090EBAE80F0013F0F8
:1001B000010F18BFFB1A43F0010318476805000040
:1001C00088050000103A24BF78C878C1FAD85207D1
:1001D00024BF30C830C144BF04680C6070470000C1
:1001E0000023002400250026103A28BF78C1FBD840
:1001F000520728BF30C148BF0B6070471FB500F0E1
:100200007BFA1FBD10B510BD00F031F81146FFF7A5
:10021000F5FF00F065FA00F04FF803B4FFF7F2FFC6
:1002200003BC00F057F80000094880470948004720
:10023000FEE7FEE7FEE7FEE7FEE7FEE7FEE7FEE796
:10024000FEE7FEE704480549054A064B70470000F3
:1002500029060008890100087000002070060020AF
:10026000700200207002002070477047704775468A
:1002700000F02CF8AE4605006946534620F0070012
:10028000854618B020B5FFF7DDFFBDE820404FF0F0
:1002900000064FF000074FF000084FF0000BAC468F
:1002A000ACE8C009ACE8C009ACE8C009ACE8C009DA
:1002B00021F007018D46704710B50446AFF300806A
:1002C0002046BDE81040FFF7A8BF00000048704777
:1002D0000800002001491820ABBEFEE726000200FE
:1002E0007047000043F61440C4F201000068C007E4
:1002F00078B1FFE743F61441C4F20101086840F009
:100300000100086040F26801C2F2000101200860AB
:10031000FFE7704743F63001C4F20201086840F07D
:10032000010008600021C4F20201086820F0030007
:1003300008600C21C4F20201086820F00100086086
:100340007047000080B582B043F64401C4F2020158
:10035000086840F48040086043F60801C4F20101D7
:10036000086820F00F00086043F60041C4F2010164
:10037000086840F00100086043F60841C4F201013A
:10038000086840F00100086043F60C41C4F2010126
:10039000086820F00100086006200190012100F0AB
:1003A0007DF9019800F062F902B080BD80B586B099
:1003B00000200590049043F60001C4F20201086891
:1003C00040F480300860FFE743F60000C4F202000A
:1003D000006800F400300490059801300590FFE7B4
:1003E00004990020029039B9FFE70598B0F5A040C4
:1003F00018BF01200290FFE70298C0070028E3D150
:10040000FFE743F60000C4F2020000688003002802
:1004100003D5FFE70120049002E000200490FFE7ED
:10042000049801285DD1FFE743F64001C4F20201C0
:10043000086840F08050086047F20001C4F20001F3
:10044000086840F44040086043F60401C4F2020129
:1004500000200860086845F20842C0F2404210439C
:10046000086043F60001C4F20201086840F08070A1
:100470000860FFE743F60000C4F202000068800154
:10048000002801D4FFE7F5E743F60801C4F20201B2
:10049000019108680860086840F400400860086836
:1004A00040F4A050086043F60042C4F20202106813
:1004B00040F2057318431060086820F003000860DC
:1004C000086840F002000860FFE743F60800C4F245
:1004D0000200006800F00C00082801D0FFE7F4E7F4
:1004E00005E0BDF80E000130ADF80E00FFE700F0AA
:1004F00003F806B080BD000086B00021059104918C
:10050000022003900291019043F60800C4F2020019
:10051000006800F00C0005900598009040B1FFE7DE
:10052000009804280ED0FFE70098082814D059E05E
:1005300040F20001C2F2000142F20040C0F2F400B9
:10054000086059E040F20001C2F2000147F64000A5
:10055000C0F27D1008604FE043F60400C4F20200D0
:100560000168C1F380510291006800F03F000190E2
:10057000029888B1FFE7019947F64000C0F27D106C
:10058000B0FBF1F043F60401C4F202010968C1F3C3
:1005900088114843049010E0019942F20040C0F2F3
:1005A000F400B0FBF1F043F60401C4F20201096863
:1005B000C1F3881148430490FFE743F60400C4F2F6
:1005C0000200006800F44031022000EBD1300390BB
:1005D00004980399B0FBF1F040F20001C2F200016F
:1005E000086009E040F20001C2F2000142F200405E
:1005F000C0F2F4000860FFE743F60800C4F202000E
:100600000068C0B2010940F21270C0F60000405C00
:100610000590059A40F20001C2F200010868D0403E
:10062000086006B0704700004EF68851CEF2000117
:10063000086840F4700008607047000080B543F619
:100640000001C4F20201086840F00100086043F6AE
:100650000801C4F202010020086043F60C01C4F254
:10066000020108680860FFF7A1FE80BD81B08DF827
:1006700003009DF9030000280ED4FFE79DF9031045
:1006800001F01F02012090404A094EF20011CEF203
:10069000000141F82200FFE701B0704782B08DF8F9
:1006A000070000919DF9070000280AD4FFE7009891
:1006B00000019DF907104EF20042CEF2000288546C
:1006C0000BE0009800019DF8071001F00F014EF6B5
:1006D0001452CEF200028854FFE702B070470000C7
:1006E00080B582B000200190FFF7A8FFFFF712FE4F
:1006F000FFF728FEFFE7FEE7F1EE100A4FF6FF7165
:10070000C0F2C03120EA010040F04070E1EE100A72
:10071000704700000000000000000102030406070B
:100720000809000044070008000000200400000041
:10073000C4010008480700080800002068060000FF
:08074000E00100080024F400B0
:0400000508000229C4
:00000001FF
