:020000040800F2
:1000000068060020290200083102000833020008B7
:10001000350200083702000839020008000000001D
:100020000000000000000000000000003B0200088B
:100030003D020008000000003F02000841020008E5
:10004000430200084302000843020008430200087C
:10005000430200084302000843020008430200086C
:10006000430200084302000843020008430200085C
:10007000430200084302000843020008430200084C
:10008000430200084302000843020008430200083C
:10009000430200084302000843020008430200082C
:1000A000430200084302000843020008430200081C
:1000B000430200084302000843020008430200080C
:1000C00043020008430200084302000843020008FC
:1000D00043020008430200084302000843020008EC
:1000E00043020008430200084302000843020008DC
:1000F00043020008430200084302000843020008CC
:1001000043020008430200084302000843020008BB
:1001100043020008430200084302000843020008AB
:10012000430200084302000843020008430200089B
:10013000430200084302000843020008430200088B
:10014000430200084302000843020008430200087B
:10015000430200084302000843020008430200086B
:10016000430200084302000843020008430200085B
:100170004302000843020008430200080000000098
:10018000430200084302000800F002F800F03CF8C7
:100190000AA090E8000C82448344AAF10107DA45E2
:1001A00001D100F031F8AFF2090EBAE80F0013F0F8
:1001B000010F18BFFB1A43F0010318474009000064
:1001C00060090000103A24BF78C878C1FAD85207F5
:1001D00024BF30C830C144BF04680C6070470000C1
:1001E0000023002400250026103A28BF78C1FBD840
:1001F000520728BF30C148BF0B6070471FB500F0E1
:100200005CFC1FBD10B510BD00F031F81146FFF7C2
:10021000F5FF00F025FC00F04FF803B4FFF7F2FF04
:1002200003BC00F057F80000094880470948004720
:10023000FEE7FEE7FEE7FEE7FEE7FEE7FEE7FEE796
:10024000FEE7FEE704480549054A064B70470000F3
:100250006507000889010008680000206806002082
:10026000680200206802002070477047704775469A
:1002700000F02CF8AE4605006946534620F0070012
:10028000854618B020B5FFF7DDFFBDE820404FF0F0
:1002900000064FF000074FF000084FF0000BAC468F
:1002A000ACE8C009ACE8C009ACE8C009ACE8C009DA
:1002B00021F007018D46704710B50446AFF300806A
:1002C0002046BDE81040FFF7A8BF00000048704777
:1002D0000800002001491820ABBEFEE726000200FE
:1002E0007047000080B582B0ADF806000020ADF880
:1002F0000400FFE7BDF80400BDF8061088420BDAE1
:10030000FFE74FF47A7000F009F8FFE7BDF804004A
:100310000130ADF80400EDE702B080BD81B0ADF86A
:10032000020041F22401C4F2000100200860FFE74E
:1003300041F22400C4F200000068BDF802108842B7
:1003400001D2FFE7F4E701B07047000083B08DF8F9
:100350000B009DF80B0045F21041C4F2000108604B
:1003600045F20040C4F2000000680190FFE745F24A
:100370001440C4F2000000688007002801D4FFE7A1
:10038000F5E745F21440C4F20000006845F2184158
:10039000C4F20001096808438DF8030003B07047F8
:1003A00043F64001C4F20201086840F400100860FE
:1003B00043F63001C4F20201086840F00200086010
:1003C00040F20041C4F20201086840F420200860B5
:1003D00040F20441C4F20201086840F44070086031
:1003E00040F20841C4F20201086840F4702008603D
:1003F00040F20C41C4F20201086840F4A0200860F9
:1004000040F22441C4F202014420086045F2004158
:10041000C4F20001086840F400400860086820F455
:100420000040086045F20442C4F20002106840F047
:100430002A00106045F21C42C4F20002106840F02D
:10044000D200106045F22042C4F20002106840F071
:100450002B001060086840F0010008607047000041
:1004600045F20041C4F20001086820F40070086001
:10047000086840F480700860FFE745F21440C4F259
:1004800000000068C00708B9FFE7F6E77047000002
:1004900045F20041C4F20001086840F400700860B1
:1004A0007047000081B08DF80300FFE745F214406B
:1004B000C4F2000000680006002801D4FFE7F5E759
:1004C0009DF8030045F21041C4F200010860FFE707
:1004D00045F21440C4F2000000684007002801D42F
:1004E000FFE7F5E701B0704780B586B000200590C2
:1004F000049043F60001C4F20201086840F4803021
:100500000860FFE743F60000C4F20200006800F450
:1005100000300490059801300590FFE70499002011
:10052000029039B9FFE70598B0F5A04018BF012047
:100530000290FFE70298C0070028E3D1FFE743F6E7
:100540000000C4F2020000688003002803D5FFE722
:100550000120049002E000200490FFE704980128A5
:100560005DD1FFE743F64001C4F20201086840F0A4
:100570008050086047F20001C4F20001086840F4AE
:100580004040086043F60401C4F202010020086004
:10059000086845F20842C0F240421043086043F642
:1005A0000001C4F20201086840F080700860FFE7B3
:1005B00043F60000C4F2020000688001002801D464
:1005C000FFE7F5E743F60801C4F20201019108686C
:1005D0000860086840F400400860086840F4A050D3
:1005E000086043F60042C4F20202106840F205734C
:1005F00018431060086820F003000860086840F0A5
:1006000002000860FFE743F60800C4F20200006839
:1006100000F00C00082801D0FFE7F4E705E0BDF882
:100620000E000130ADF80E00FFE700F003F806B051
:1006300080BD000086B00021059104910220039046
:100640000291019043F60800C4F20200006800F035
:100650000C0005900598009040B1FFE70098042831
:100660000ED0FFE70098082814D059E040F20001AE
:10067000C2F2000142F20040C0F2F400086059E00A
:1006800040F20001C2F2000147F64000C0F27D10C6
:1006900008604FE043F60400C4F202000168C1F3B1
:1006A00080510291006800F03F000190029888B1EB
:1006B000FFE7019947F64000C0F27D10B0FBF1F072
:1006C00043F60401C4F202010968C1F388114843EA
:1006D000049010E0019942F20040C0F2F400B0FB37
:1006E000F1F043F60401C4F202010968C1F3881174
:1006F00048430490FFE743F60400C4F20200006898
:1007000000F44031022000EBD130039004980399AB
:10071000B0FBF1F040F20001C2F20001086009E014
:1007200040F20001C2F2000142F20040C0F2F400C7
:100730000860FFE743F60800C4F202000068C0B298
:10074000010940F6D420C0F60000405C0590059AEF
:1007500040F20001C2F200010868D040086006B013
:10076000704700004EF68851CEF20001086840F450
:10077000700008607047000080B543F60001C4F2C5
:100780000201086840F00100086043F60801C4F265
:1007900002010020086043F60C01C4F2020108685F
:1007A0000860FFF7A1FE80BD43F64001C4F20201DC
:1007B000086840F01000086041F22801C4F200010E
:1007C000086840F05300086041F22C01C4F20001B7
:1007D00008684FF6FF721043086041F20001C4F24E
:1007E0000001086840F001000860FFE741F21000D6
:1007F000C4F200000068C00708B9FFE7F6E77047D9
:1008000082B001908DF80310FFE745F21440C4F266
:10081000000000680006002801D4FFE7F5E7FFE7C5
:100820009DF80300D0B1FFE7FFE745F21440C4F2A2
:10083000000000680006002801D4FFE7F5E70198F2
:10084000411C0191007845F21041C4F2000108609A
:100850009DF8030001388DF80300E1E7FFE745F25A
:100860001440C4F2000000684007002801D4FFE7EC
:10087000F5E702B07047000080B582B000F022F8C2
:1008800000F018F800210191084600F05BF840F6EE
:10089000E420C0F6000000F0D1F80199012000F03A
:1008A00051F840F6ED20C0F6000000F0C7F802B0A5
:1008B00080BD000080B5012000F060F80520FFF742
:1008C00011FD80BD80B584B03220FFF70BFD3020D4
:1008D000019000F053F80520FFF704FD019800F0A7
:1008E0004DF8C820FFF71AFD019800F047F80A20DC
:1008F0000290FFF7F7FC202000F040F80298FFF785
:10090000F1FC282000F03AF801200390FFF7EAFC00
:10091000082000F033F80398FFF7E4FC039800F098
:100920002DF80220FFF7DEFC062000F027F80398E0
:10093000FFF7D8FC0C2000F021F80398FFF7D2FC59
:1009400004B080BD80B584B00390029103980190FB
:1009500020B1FFE70198012805D009E0029840F096
:100960008000029004E0029840F0C0000290FFE78F
:100970009DF8080000F002F804B080BD80B582B098
:100980008DF807009DF8070000F0F0008DF80600D4
:100990009DF8070000018DF805009DF8060040F065
:1009A0000C008DF801009DF8060040F008008DF85D
:1009B00002009DF8050040F00C008DF803009DF842
:1009C000050040F008008DF804004E200DF10101F3
:1009D000042200F053F802B080BD000080B582B060
:1009E0008DF807009DF8070000F0F0008DF8060074
:1009F0009DF8070000018DF805009DF8060040F005
:100A00000D008DF801009DF8060040F009008DF8FA
:100A100002009DF8050040F00D008DF803009DF8E0
:100A2000050040F009008DF804004E200DF1010191
:100A3000042200F023F802B080BD000080B582B02F
:100A40000190FFE70198007838B1FFE70198411C59
:100A500001910078FFF7C2FFF4E702B080BD00000B
:100A600080B582B000200190FFF786FEFFF79CFE64
:100A7000FFF796FCFFF700FFFFE7FEE780B584B0C5
:100A80008DF80F0002910192FFF7EAFC9DF80F002C
:100A9000FFF75CFC0198012805D1FFE70298007878
:100AA000FFF700FD05E002989DF80410FFF7A8FE8F
:100AB000FFE7FFF7EDFC04B080BDF1EE100A4FF642
:100AC000FF71C0F2C03120EA010040F04070E1EE59
:100AD000100A70470000000000000000010203043B
:100AE000060708094D6572686162612100627567D9
:100AF000756E2067757A656C000000001C0B00089D
:100B00000000002004000000C4010008200B0008C1
:100B10000800002060060000E00100080024F40046
:0400000508000229C4
:00000001FF
